:020000021000EC
:108000000080002095A00100DDA00100DFA001009C
:108010000000000000000000000000000000000060
:10802000000000000000000000000000E1A00100CE
:108030000000000000000000E3A00100E5A0010036
:10804000E7A00100E7A00100A98F0100E7A001005F
:10805000E7A00100000000000D940100E7A001006E
:10806000E7A00100E7A00100E7A00100E7A00100F0
:10807000E7A00100E7A00100E7A00100E7A00100E0
:10808000E7A001003D860100E7A00100E7A0010094
:1080900021870100E7A0010039980100E7A0010055
:1080A000E7A00100E7A001000000000000000000C0
:1080B00000000000000000000000000000000000C0
:1080C000164B002B00D1144B9D46402292029A1A67
:1080D000924600218B460F461348144A121A00F0AC
:1080E00067F80F4B002B00D098470E4B002B00D0A9
:1080F00098470020002104000D000D48002802D000
:108100000C4800E000BF00F02DF82000290000F02E
:108110006DF800F011F8C046000008000080002053
:108120000000000000000000702000205C240020FF
:108130000000000000000000084B10B5041C002BDC
:1081400002D0002100E000BF054B1868836A002BB5
:1081500000D09847201C00F033F8C0460000000013
:1081600048A201000E4B70B500251E1C0D4CE41AF0
:10817000A410A54204D0AB00F35898470135F8E7A6
:1081800002F054F8084B00251E1C084CE41AA410F9
:10819000A54204D0AB00F35898470135F8E770BD0D
:1081A000702000207020002070200020702000200F
:1081B000031C8218934202D019700133FAE770470A
:1081C000FEE7C04648DF704772DF704773DF7047D5
:1081D0007CDF704760DF704708B5031C0A1C02484B
:1081E000191C00F0BDF908BDEFBEADDEF0B5474685
:1081F000002380B496B00093002005210522544B43
:1082000000F018FD002803D00021002200F0A8F99A
:1082100001205049002201F0DDFE002803D000219A
:10822000002200F09DF90EAD00210822281CFFF766
:10823000BFFF112048494822002301F0D7FA002847
:1082400003D00021002200F08BF901222B78281C9A
:1082500093432B70FFF7BEFF002803D000210022BC
:1082600000F07EF9012321200026022706AC63706E
:108270000333A3701633E370E5332371A63B6371B8
:10828000443B2372354A364B04A904920593684453
:1082900008222770A671E77101F0B8FF2920314B41
:1082A000314A04A9049205936844082201F0AEFF04
:1082B0002E4B1B681A0C110AA27623771A0AC323C5
:1082C00063772B4B6176181C9846E27601F0A7FF86
:1082D000421C3A200823D2B22A704146013A68442F
:1082E0006B7001F093FF2B78201C0133DBB21E2151
:1082F0002A1CFFF769FF00232A7803A8013A92B2EB
:1083000041460370FFF764FF1A4C0021201C18221D
:10831000FFF74EFFA023201C277066602672238281
:108320006682FFF753FF002803D00021002200F0EF
:1083300017F9022001F0A4FC002803D1FFF742FF47
:108340000028FBD00021002200F00AF9F6E7C04621
:1083500070200020CD0C000000230020F0EFDECDC7
:10836000BCAB9A89342312017867564580100010FF
:108370006020002048230020F8B54D465F46564651
:108380004446F0B4224B1978994600292AD0214B53
:1083900000259846204B214F01269A4603E00135DF
:1083A000EDB28D421ED243461B68321C9C46EC0047
:1083B000644420783B6882401342F0D093433B6092
:1083C00001F01AF8331C22785146934009680B409B
:1083D000011C91408B420BD04B4601351978EDB210
:1083E0008D42E0D33CBC90469946A246AB46F8BDD0
:1083F000616863788B460029EED0591E4C424C418F
:10840000211A4B424B41101CD9B2D847E4E7C04671
:1084100068230020642300206C23002074230020A4
:10842000F8B5124D071C286800F04AFD002807D156
:108430000124BC400E4E3368234202D0A343336074
:10844000F8BD381C00F0D8FF0A4A136800280BD08A
:1084500023431360336828681C43074B00221968C4
:10846000346000F09FFCEBE7A343F2E770230020A9
:10847000742300206C23002060230020F0B54F46B9
:108480004646C0B4141C071C83B00E1C0720042AE7
:1084900004D803B00CBC90469946F0BD00F090FEA5
:1084A00000282FD01A4B1B4A1F601B4B751E1E70D5
:1084B0001A4BEDB21C6000231360194A1360002EA2
:1084C0001AD0184B01AC994603230026984600E0C9
:1084D0001D1C4246EB00FB182270A670E6709A78CD
:1084E00018786270211C4A4600F074FE0028D0D132
:1084F0006B1EDBB2002DEBD100210B4A0B4800F0C4
:108500001DFCC6E700F022FE0028CBD0C1E7C04624
:10851000642300206C2300206823002060230020B7
:10852000742300202184010079830100702300203E
:1085300070B5094D2B78002B0BD00024074E326804
:10854000E300985C012100F003FF2B780134A34283
:10855000F5D8002070BDC0466823002064230020A9
:10856000BFF34F8F024A034BDA60BFF34F8FFEE732
:108570000400FA0500ED00E0031C10B59C8880683B
:10858000DA68121A0420944200D210BDDA68002082
:1085900014401A681155DA680132DA60F5E7C0460E
:1085A00010B58468C268031C0520944209D09868FD
:1085B0009A8802401868825C00200A709A6801322A
:1085C0009A6010BD80218023184A8902D1508022F0
:1085D000D221174B520289005A5040395A50012279
:1085E0002F205A600138C046C046C046C046C0462B
:1085F000C046C046C046C046C046C046C046F1D18F
:108600009A6000230B4A2F2013600138C046C046F1
:10861000C046C046C046C046C046C046C046C0462A
:10862000C046C046F1D1044A1370704700E100E033
:108630000010014078230020A0230020A021F0B5E5
:10864000002247462C4B490080B45A5004315A50FE
:1086500004315A5004315A504C395A5004315A504E
:10866000264A17687A1C38D0254A00259B58254A87
:10867000254E14681C1B254B2402240A984601E051
:108680007B1C1BD03268FB009446DB199B006344C3
:108690005A68A24212D8A41AAD181F6A9A69D969F9
:1086A00043461B68002B1BD0101C98470028E7D0BE
:1086B00000210022FFF754FF7B1CE3D1144B154926
:1086C0001A780B789A420ED0134A9B009D50802155
:1086D0008023124A49035B00D15004BC9046F0BD90
:1086E000081C9047CCE70132D3B2022B01D00B70AB
:1086F000EAE700230B70E7E7001001409023002019
:108700000405000078230020802300207C23002023
:108710008C2300208D2300209823002000E100E01E
:10872000F0B55F4656464D464446F0B4CA4BCB4A78
:108730001B68CB498DB0079309781378994200D113
:1087400056E20133DBB2022B00D11CE21370C54AA2
:108750009B009B58079A9C46624406931302BE4AAC
:108760001B0A136001230893BF4B00251B681E1CC6
:108770000B93BE4B1B78191C0A1C0393BC4B013A8C
:108780001B68D2B20593BB4B02911868B24B0292A0
:108790001B680A93B84B1B780993331CFF2A3DD002
:1087A0000599D200894691444A464946127849784B
:1087B000B44601904E468A4228D077685400A418E7
:1087C000B8460132B778D2B2BF1A781E8741E400AA
:1087D0007F4244443A402778022F00D1DBE0032F48
:1087E00000D0D5E06046013000D1D1E06346019869
:1087F000D900CB189B00C3181D751B6A591CF7D1F3
:108800001F1C01907178BC468A42D6D1029A019809
:10881000013AD2B266460292FF2AC1D169462424A7
:108820000919954A0978059611708B4A0A991160C1
:108830008D4A1360089A002A00D0A6E10B9B059F81
:108840009B1B5A1E9341DBB2069301235B429C465D
:10885000874B1B680493874B1E687F4B1B689B46A6
:10886000814B1B680193844B1B780293002399462C
:10887000039B013BDBB20393FF2B00D100E1049A81
:10888000DB0092469A446346013341D06346DC00E4
:108890006444A4003419236AE0469C46A268E16857
:1088A0005B467648D31A1B021B0A834267D85B18C3
:1088B00063604B46A360E3600123237501235B42A1
:1088C00023627B1C00D1BDE0FB00DB199B00F31889
:1088D000606859683D1C884209D8A5E0D3009B1800
:1088E0009B00F3185968814200D3A8E0151C1A6A4E
:1088F000401A531CF2D1EB005D19434622623A1C28
:10890000AD00751960602B62171C63460133BDD141
:10891000534652461B7852789A42A9D05246526822
:10892000580090465246C0180133DBB2137092785B
:10893000C00040449A4200D189E043683A1C9846FE
:108940000378012BE0D14346DC004444A4003419F1
:10895000237D002BD8D18268A260C168E1600569DF
:1089600025614069E0610298002899D0A360002247
:108970005B464248D31A1B021B0A834297D95B46C7
:108980009A1A1202120A8A4256D2891A616090E734
:108990006746BC4638E76468E000071980460198DE
:1089A000BF008146BA46CA445046007D67468146AC
:1089B000002800D127E76146013114D0644500D179
:1089C000CFE0049201989B4602E09C4210D01F1C0D
:1089D000F900C919890041180B6A5A1CF5D15B4688
:1089E0006746049A019051460D757178BC460BE7B5
:1089F000049A01905B46BC4200D19DE0444480460D
:108A00006746A40044446068246A84460C62611C82
:108A1000E9D00198E100804609198900414448687D
:108A20001F1C60444860DEE7091A5960424643460D
:108A300027620193171C68E74B46636039E7091A00
:108A4000596058E7434642460193171C5DE7534679
:108A50004A461A7071E7C046782300208C23002014
:108A60008D230020982300209023002084230020C1
:108A7000882300208023002094230020FEFF7F0015
:108A8000644B019A1A60059B9F4200D16DE07B1CEC
:108A900000D1BBE0604BFA00D7191B68BF00DB199F
:108AA0005C685E485E4B5F4DC1585F4B2E781B681B
:108AB000CA1A1202120A03329046002E1FD18026D3
:108AC000D1277602BF00C651403FC651C022802741
:108AD000564EBF025200B7503760012606602F2065
:108AE0000138C046C046C046C046C046C046C04623
:108AF000C046C046C046C046C046F1D12E70424670
:108B0000A24200D2221CA820D2181202130A434A01
:108B1000C000135042485B1A12581B02521A12022C
:108B2000120A03321B0A9A4223D9802180233F4A2A
:108B300089025B00D1501CE06346DB00634484463D
:108B40000C1C9B0063441B6A1F1C581C00D05AE776
:108B50000127324887604846099000201F1C0A9070
:108B600051E7544653465146EDE7069B002B00D093
:108B70008DE700232E4A13700DB03CBC90469946F9
:108B8000A246AB46F0BD0023E0E5234A0024176867
:108B9000012252429446002260469046721C1FD029
:108BA000F20092199200BA185168069DA94223D882
:108BB0006B1A069343465360434664181169137554
:108BC0008C46136A002908D00799106261180902BF
:108BD000090A91606146301CD1601E1C721CDFD1F5
:108BE0000C4A84461360012305960693371C2FE632
:108BF000002306930893B7E584460648491B0360A3
:108C00000123059651600693371C21E6FFF7DAFC35
:108C1000AFE7C046902300208023002000100140D1
:108C200004050000A02300207823002000E100E0DC
:108C300094230020F8B51E1C051C0F1C141C0720D3
:108C4000B30700D0F8BD002EFCD0FFF7BBFC2E4BC5
:108C5000069A1A602D4B1F702D4B1E60002F51D0AD
:108C6000331C0022F900C819800030181A701A75D8
:108C700024338342FAD1C919890073180321181CBF
:108C8000244A1830117061000919234AC90058603C
:108C9000401813604118002259610121D8608020DA
:108CA0009C709C729C74C5241A705A701A725A7205
:108CB0001A745A74194B49421960194B40031A70BF
:108CC000184BA4001A70184B8132FF3298501A5971
:108CD0000131FF318A433F390A431A51A1221860FA
:108CE000C4201249D2008D5080001C58104A2240E6
:108CF000C024240222431A500E4B0020CA580E4BA7
:108D00001A609FE70021B6E77C2300208E23002015
:108D1000802300208423002088230020902300202B
:108D20008C2300208D23002000E100E00010014092
:108D3000FF00FFFF0405000078230020F0B5174B6B
:108D400094461E68002E1DD0002A19D0002817D086
:108D5000134B1F78002F11D03378002B14D0341C04
:108D60000023243407E0261C2434251C243D2D78C0
:108D70001A1C002D09D00133BB42F4DB0420F0BDE6
:108D80000720FCE70820FAE700220123337063463E
:108D90007170B36102600020F1E7C04680230020BB
:108DA0008E230020F0B5474680B43D4B1C68002C54
:108DB00047D03C4B1D780723854203D8181C04BCC0
:108DC0009046F0BD0429F9D9C3001B189B00E41894
:108DD00025780823012DF1D163780024A046012BCA
:108DE00031D0314B10245B68DB05DB0D2FD12F4BCD
:108DF0001D682D196B78AC785E1C341B671EBC4156
:108E0000644226402C78B4421FD05C00E3186C68A2
:108E1000DB00E4180423002CD0D0033B23706060F7
:108E2000234B2448C358E160A3604346802123615B
:108E300080236261204A5B0049036E70D150002399
:108E4000BCE70823BAE78846CBE70423B6E7103B24
:108E5000DDB26CB2002C13DBA408174DC034A400A3
:108E6000645903252B40DB00DC4023069B0FDBB25B
:108E70000024012BBBD00834032BB8D00834B6E74C
:108E80000F230E4C2B40A446083B9B089B006344D9
:108E90005C6803232B40DB00DC40E3B29B09E6E780
:108EA000802300208E23002000ED00E08823002096
:108EB000040500000010014000E100E018ED00E0B2
:108EC00030B5334B1A68002A34D0324B1978072357
:108ED000814201D8181C30BDC3001B189B009A5C4E
:108EE0000823012AF6D12C4B0F325B68DB05DB0D22
:108EF00024D12A4B196889184B788A785C1CA21AED
:108F0000551EAA41524214400A78A24214D05A0077
:108F1000D3184A68DB00D2180423002ADAD0023BB7
:108F2000137050604C7080211D4AFE334903D150AC
:108F30000023CFE70823CDE70423CBE7103BD9B2CA
:108F40004AB2002A13DB92081549C03292005258E7
:108F500003210B40DB00DA4013069B0FDBB200223B
:108F6000012BC6D00832032BC3D00832C1E70F2330
:108F70000C4A0B409446083B9B089B0063445A688C
:108F800003230B40DB00DA40D3B29B09E6E7C0467F
:108F9000802300208E23002000ED00E088230020A5
:108FA00000E100E018ED00E0842210B5414B5200D2
:108FB000995884B000292DD18E223E4B52009958E9
:108FC000002914D192223B4B5200995800290CD011
:108FD000002199509021C9005A5802A85A500223E2
:108FE0000370354B42601B68984704B010BD0021E8
:108FF000324C99502278D2B2002AE3D0022A21D9E9
:10900000032ADFD1023A2170DA605A60A022D2002E
:109010009950D7E700219950A322D2009958284CA3
:10902000C9B2201CFFF7A8FA00282AD1A268E36879
:109030009B1A012BC0D1204A02AB18701268181C71
:109040009047B9E71F488168C26891422DD02278C5
:10905000022A01D001229A606B46D91DFFF7A0FABF
:10906000002817D1C2218022124B89005A5069462C
:10907000C8791549585002212170C12189005A50E0
:10908000A0E7012202AB1A700B4A03901268181C69
:10909000904791E70123074AD3602370032302A876
:1090A0000370054B1B6898478CE70122DA60227039
:1090B000F4E7C04600200040A4230020B82300208D
:1090C000BC230020A82300201C050000F0B50028C8
:1090D00020DBFF271B4B03229C463B1C8408C02639
:1090E000C0B20240D2009340A4006444B600A55927
:1090F0009D438B013B409340191C2943A1511F23E1
:1091000018401E3B8340C022181C0E4B5200985042
:109110001860F0BDFF260C4A03249446321C0F232E
:10912000C0B20440E400A2400340083B9B089B00FF
:109130006344DD6995438A013240A240111C2943F2
:10914000D961DCE700E100E000ED00E038B54E2534
:10915000194C0820635D002B00D038BD4822FF2148
:10916000013BA3540132A1540132A3540132A35450
:109170000132A354A3620132E36223636363A363F6
:10918000E363236463640238FE39A354236063609D
:10919000A360E36023616361A361E36123626362AF
:1091A000FFF794FF8021C123044A9B000906D15098
:1091B000012300206355D0E7CC230020006000404D
:1091C0004E23034AD05C431E9841C0B27047C0464C
:1091D000CC230020F0B5474680B45A4C9046231863
:1091E00028331E7808257F2E03D8281C04BC9046FF
:1091F000F0BDCD78AC46002D43D02268013200D1BD
:1092000094E004270026731C9D006259013240D06F
:10921000B31C9F4233D99D006259013239D0F31CEF
:109220009F422CD99D006259013232D0331DBB427E
:1092300025D29D00625901322BD0731D9F421ED949
:109240009D006259013224D0B31D9F4217D99D0061
:10925000625901321DD0F31D9F4210D99D00625901
:10926000013216D001339F4209D99D006259013263
:109270000FD00936B74202D9636A013307D00425FB
:10928000B3E72269013256D00A270426BBE7092337
:1092900024254246625162462718DEB228373E70C6
:1092A000002A02D1E318443318708B78002B15D1B3
:1092B000031CA0254A78C133FF3392009B00ED05C3
:1092C0005A51CB78002B15D176B2A41944340B78BF
:1092D00022789B0113432370002586E7A022D20544
:1092E0009446E025022783006344ED005A59BA43AF
:1092F0005A51E6E7A22476B2134BB600F318E40005
:109300000A781D591149000229401951F8214901D3
:109310000840061CC0211004021C301C89021D5983
:109320000A4010432843185100255EE700261E70AE
:1093300043462360B9E704251D7043462E1C236174
:109340002B1CAFE7CC23002000600040FFE0FCFFB7
:10935000F0B5264D2C182834227853B2032B18DD93
:10936000EB1844331B789B09032B32D0012B39D0E7
:10937000C025AD02A023DB059C46E02380006044AD
:10938000DB00C4581A492140C150C2582A43C25078
:10939000F0BD032AFCD81748A227844601269A006C
:1093A0006244FF00D0593043D0511A1C6046002758
:1093B0004032920092B217500029E9D00022A25602
:1093C00092005259002AE3D0C1229E40920086505A
:1093D000DEE7A223A022DB00D205D258012383407E
:1093E0001A42C5D18025AD02C4E7C046CC23002077
:1093F000FFFFFCFF00600040A223A022DB00D2059B
:10940000D358C340181C012318407047F0B5444698
:109410005F4656464D46F0B4844A83B01368002434
:10942000012B65D0824B1A68012A6DD0814B1A68D6
:10943000012A00D178E0804B1A68012A00D183E02C
:109440007E4B00261A68012A00D18EE023070BD03C
:10945000E30700D593E0A30700D5BBE0630700D581
:109460009DE0230700D5A9E0002C06DB03B03CBC3F
:1094700090469946A246AB46F0BDC0239846C0230D
:109480009B0200246E4D994605E0032B00D1B0E00D
:109490000134062CEAD0231C4833E95C4BB201337B
:1094A000F6D0C9B24346081C98432B1828331B78C2
:1094B0005BB29B00EA58002AEAD0A027FF05BC4611
:1094C0008B09019383009C44E0276346FF00DB592E
:1094D0004F463B40012787401B0C3E42D5D0022B14
:1094E000D6D1019B032B00D18BE001999047CFE7A8
:1094F000C1215448890041580B4293D04C4B146011
:109500001A680134012A91D1C1224E49920089582A
:1095100002220A4200D189E700211960454B144319
:109520001A68012A00D086E7C1224649920089586C
:1095300004220A4200D17EE7002119603E4B144309
:109540001A68012A00D07BE7C1223E49920089585F
:1095500008220A4200D173E700211960374B1443F7
:109560001A680026012A00D070E71E6080231B06BF
:109570001C43A022A223D205DB00D65866E7A22313
:10958000304ADB00D058D1582D4DC00489032B68D8
:10959000C00E890F9847A30700D45FE71AE0A32302
:1095A000284ADB00D058D158254DC0048903AB6848
:1095B000C00E890F9847230700D455E7214A224B54
:1095C0001F4DD058D158C0048903C00E890FEB68D5
:1095D000984749E71D4B1B4A194DD058D158C00434
:1095E00089036B68C00E890F9847630700D438E77A
:1095F000D5E7019B032B00D077E780239B029A4697
:1096000002E0C0239B029A46E0216346C9005B58F2
:109610009B465F460E4B3B4067467B507B58574608
:109620001F433B1C67467B505FE7C046006100401C
:1096300004610040086100400C6100407C61004012
:10964000CC230020006000401C0500001405000031
:10965000FFFFFCFF1F4B1B78012B00D070471E4BF8
:109660001B681B07FAD1F0221C4B1B68134018D152
:109670001B4B1B6813421AD0174B1B681B07EDD1FD
:10968000F022164B1B681340402BE7D1144B1B688C
:109690001342E3D1C12380220121DB00D205D15046
:1096A000DCE7102B0FD10E4B1B681342E8D10D4A9B
:1096B0000D4B1A6080220D4B12021A60054B1B786D
:1096C000012BD9D0CAE7302BDAD1054B1B681342E6
:1096D000D6D1ECE7E00F00F0E40F00F0E80F00F067
:1096E000EC0F00F0DFFF07C004050040186C0040DD
:1096F0002EDF704751DF704710DF704761DF704722
:1097000008B5081C111CFEF767FD08BDF0B55746EB
:109710004E464546E0B4314B314E1D6899466B428A
:109720005D41304BB2461C68984663425C412E4F07
:1097300082B0EDB2E4B2002D08D0002C27D002B0E8
:109740001CBC90469946A246F0BD012401A8FFF733
:10975000D1FF052831D000282AD000210022FEF7B1
:10976000FFFE002CF1D16A461D4B01A91B88938096
:109770001D4B1C68201CFFF7C1FF0528E5D0002801
:1097800010D000210022FEF7EBFE0024D3E73C6856
:10979000338801A9201C0B80FFF7B0FF0528CED02D
:1097A0000028EED14346201C1B6898470024C2E7DE
:1097B0004B4601981B689847D3E7002CBFD153460E
:1097C0006A461B8801A99380074B01251C68201C51
:1097D000FFF794FF0528D2D1B1E7C046242400202A
:1097E0001E240020282400202024002038B5041C3A
:1097F0000720002901D08D0700D038BD094801603D
:109800000949201C0A80094A09491360FFF774FFBF
:109810000028F2D10122074B16301A70FFF768FFBB
:10982000EBE7C046202400201E2400202C2400202A
:10983000019701001C24002008B50A4B1B68002B6F
:1098400008D09847002800D108BD00210022FEF76B
:1098500087FEF9E7044B1B78002BF5D0FFF756FF86
:10986000F2E7C0462C2400201C240020A02210B5C2
:10987000064BD205D15880231B041C1CA1208C430D
:109880000B400349C0001450535010BD04050000A4
:109890000C050000F8B54F464646041CC0B411281C
:1098A00009D012283AD013283AD014283AD00CBC48
:1098B00090469946F8BD0025012911D000291FD0F6
:1098C0000229F4D16B005D19204B5D196E78002ED2
:1098D000EDD01F4B1B68002BE9D0301C9847E6E702
:1098E0001A4B6F00984642467B19D65C43445B781E
:1098F000002B19D17F194744BA78164B5A55E6E721
:10990000154B1868FFF7DCFA104A6B005B19D31887
:10991000104A9B78565D9E42C9D1D8E70125CBE716
:109920000225C9E70325C7E70B4B18680B4B1B68DB
:109930009900C9180A4B49001A1C9946FFF732FAD8
:109940000028D7D14B461C70D4E7C04650240020D5
:109950004424002030240020382400203C2400200F
:1099600049240020F8B5AC4B1B68DB0700D4F8BDD8
:10997000AA4A1478172CFAD8A949A300CB589F46B5
:10998000A022A84BD205D1588023DB031C1CA120A8
:109990008C430B40A449C00014505350A34B0022E9
:1099A0001868A34B1B689900C918FFF7FBF9DEE79D
:1099B000A023F021DB0549049B4A99500021043A79
:1099C0009950D4E7A022974BD205D1588023DB03CE
:1099D0001C1CA1208C430B409349C00014505350D1
:1099E000924B00221868924B1968FFF7DBF9BEE72B
:1099F000A021A120A0230026F025C9055B04C000FA
:109A0000894C0B50874B0E51CB586D046B40802511
:109A1000AD032B4000D1EBE00D5003230E51082184
:109A20001370824B00221868814B1B685943FFF763
:109A3000B9F99CE7A021A120A0230026F025C905A3
:109A40005B04C000784C0B50764B0E51CB586D0424
:109A50006B408025AD032B4000D1D1E00D50042395
:109A60000E512821DCE7A023A122E021DB05D20052
:109A700049048024995000216B48A40319501C50BC
:109A8000995074E76B4D2868FFF71AFA11231C1BD5
:109A900000D19EE0002800D09BE0012C0DD0C83002
:109AA0006421604300F020FB614B2D681B6800229D
:109AB0004343281C191CFFF775F9A0238021DB05FF
:109AC000090479E7A023B021DB054904A122D200D3
:109AD00099500021544A995049E7A021A120A02380
:109AE0000027F026C9055B04C0004F4D0B504D4BBD
:109AF0004F51CB58760473408026B60333406DD067
:109B00000E504F51022C00D17FE02821147088E7BD
:109B1000A023A122C021DB05D2004904C024995012
:109B200000214148E40319501C5099501FE7A0231D
:109B3000A122D021DB05D2004904802499500021C4
:109B40003948E40319501C50995010E7A023F02124
:109B5000DB054904BAE7A023A122DB05D200A0213E
:109B600086E7A021A120A0230026F025C9055B04DB
:109B7000C0002D4C0B502B4B0E51CB586D046B403D
:109B80008025AD032B4030D00D500E5105231370AE
:109B9000264B00221868264B19684900FFF702F986
:109BA000E5E6A021A120A0230026F025C9055B043D
:109BB000C0001D4C0B501B4B0E51CB586D046B401D
:109BC0008025AD032B4018D00D500E510623137085
:109BD00006E7A0238021DB05090477E74E510B50EF
:109BE000022C15D0042114701BE70D510B50CDE74A
:109BF0000D510B500221032312E70D510B50E5E7E5
:109C00000D510B50042104230AE71221147008E7B8
:109C10000221147005E7C0463424002048240020A7
:109C20004CA20100040500000C0500004C2400209B
:109C30003C2400204024002008B50378112B06D0D6
:109C4000122B12D0132B12D0142B12D008BD0023CC
:109C50005A00D318084AD31858780028F6D0074B72
:109C60001B68002BF2D09847F0E70123F0E70223AE
:109C7000EEE7113BECE7C0465024002044240020CE
:109C800070B5CC4B041C1B680020DB0700D470BDF2
:109C9000172CFCD8C84AA300D3589F46A022C74B14
:109CA000D205D1588023DB031C1CA1208C430B4020
:109CB000C349C00014505350C24B00221868C24B15
:109CC0001B689900C918FFF76DF8E0E7A022BB4BAD
:109CD000D205D1588023DB031C1CA1208C430B40F0
:109CE000B749C00014505350B64B00221868B64B09
:109CF0001968FFF757F8CAE7B44D2868FFF7E0F88E
:109D000011231C1B00D130E1002800D02DE1012CD3
:109D10000DD0C8306421604300F0E6F9AA4B2D68ED
:109D20001B6800224343281C191CFFF73BF8A023A3
:109D30008021A34ADB05090499500021043A995077
:109D4000A5E7A023F021A122DB054904D200995008
:109D500000219B4A0020995012229D4B1A7096E7D1
:109D6000A023A122E021DB05D200490480249950E0
:109D700000219348A40319501C5099501322944B6E
:109D800000201A7083E7A023F0218D4ADB054904E7
:109D900099500021043A99508D4B00201C7076E7B1
:109DA000A022B021A123D2054904DB00D150002319
:109DB000834900205350864A137068E7A022A121EE
:109DC000A0230026F025D2055B04C9007C4853502F
:109DD0007A4B1650D3586D046B408025AD032B4051
:109DE00000D1D5E055501650022C00D1DDE02821DD
:109DF000774B1C70734B00221868734B1B685943D8
:109E0000FEF7D0FF43E7A023F0216D4ADB054904AC
:109E100099500021043A9950002038E7A023A1224C
:109E2000D021DB05D20049048024995000216448E8
:109E3000E40319501C5099501422654B00201A70ED
:109E400025E7A022A121A0230025F024D2055B0450
:109E5000C9005B485350594B1550D35864046340B4
:109E60008024A403234000D18AE0545015500821D7
:109E7000032217E0A022A121A0230025F024D2056F
:109E80005B04C9004E4853504C4B1550D3586404E2
:109E900063408024A403234000D17FE05450282154
:109EA000155004224A4B1A70A4E7A023A122A02136
:109EB000DB05D20049048024995000214048A403C6
:109EC00019501C5099500722414B00201A70DEE6B1
:109ED000A023A122C021DB05D2004904C02499504F
:109EE00000213748E40319501C5099501522384B73
:109EF00000201A70CBE6A022A121A0230025F02487
:109F0000D2055B04C9002E4853502C4B1550D35832
:109F1000640463408024A403234036D05450155079
:109F200005222B4B1A70274B00221868264B196804
:109F30004900FEF737FFAAE6A022A121A0230025B1
:109F4000F024D2055B04C9001D4853501B4B15502B
:109F5000D358640463408024A403234022D0545087
:109F6000155006221A4B1A70BEE6A0238021A122AA
:109F7000DB050904D20099500021114A995086E668
:109F800014505350022103228CE714505350C7E75A
:109F900015505350022C0AD0042129E71450535075
:109FA00004217EE714505350DBE7122120E7022101
:109FB0001EE7C04634240020ACA2010004050000C6
:109FC0000C0500004C2400203C24002040240020EC
:109FD00048240020234B10B51960234B041C186043
:109FE000224B1A60830712D50D22214B21481A708B
:109FF0000132DA7001329A7101325A724A08042130
:10A00000FEF73CFA002820D0E30703D41CE0C30786
:10A010000ED50020A023F022A1210024DB0552044C
:10A02000C9005A5014495C500C315A5000280BD1C9
:10A0300012480021124AFEF781FE002804D111487F
:10A040000121114AFEF77AFE10BDFEF771FA0028D1
:10A05000DAD10E4800210E4AFEF770FEE307E5D57F
:10A06000D8E7C0463C2400203424002044240020AB
:10A07000502400200CA301000C0500004C240020FB
:10A0800065990100402400206D98010038240020CB
:10A09000399C010003210A4802680A43026009480A
:10A0A00002680A4302600849084A094B9B1A03DD0B
:10A0B000043BC858D050FBDC0648804706480047A0
:10A0C000240500405405004034A301000020002076
:10A0D0007020002055960100C1800100FEE7FEE7D8
:10A0E000FEE7FEE7FEE7FEE7002243088B4274D35B
:10A0F00003098B425FD3030A8B4244D3030B8B4289
:10A1000028D3030C8B420DD3FF22090212BA030C91
:10A110008B4202D31212090265D0030B8B4219D372
:10A1200000E0090AC30B8B4201D3CB03C01A524192
:10A13000830B8B4201D38B03C01A5241430B8B42DA
:10A1400001D34B03C01A5241030B8B4201D30B03C3
:10A15000C01A5241C30A8B4201D3CB02C01A5241EA
:10A16000830A8B4201D38B02C01A5241430A8B42AD
:10A1700001D34B02C01A5241030A8B4201D30B0296
:10A18000C01A5241CDD2C3098B4201D3CB01C01AB0
:10A19000524183098B4201D38B01C01A52414309BA
:10A1A0008B4201D34B01C01A524103098B4201D3A8
:10A1B0000B01C01A5241C3088B4201D3CB00C01A15
:10A1C000524183088B4201D38B00C01A524143088D
:10A1D0008B4201D34B00C01A5241411A00D20146B2
:10A1E000524110467047FFE701B5002000F00CF81F
:10A1F00002BDC0460029F7D003B5FFF775FF0EBCBE
:10A200004243891A1847C0467047C046002310B51C
:10A21000934203D0CC5CC4540133F9E710BD002352
:10A22000C25C0133002AFBD1581E7047F8B5C04606
:10A23000F8BC08BC9E467047F8B5C046F8BC08BCE0
:10A240009E4670474300000000200020C49A010091
:10A25000DA9A0100DA9A0100F0990100349A0100BB
:10A26000629B0100A29B0100569B0100C499010062
:10A2700080990100C499010080990100B099010002
:10A28000849A0100849A0100849A0100849A010052
:10A29000849A01004C9B0100669A01002E9B0100EC
:10A2A000109B0100B0990100B0990100A09D010030
:10A2B000BC9D0100BC9D0100429E0100749E0100F6
:10A2C000F69E0100389F0100AA9E0100CC9C01006F
:10A2D0009C9C0100CC9C01009C9C0100069E0100FE
:10A2E000F89C0100F89C0100F89C0100F89C01001A
:10A2F000F89C0100429D0100609D01001C9E010030
:10A30000D09E0100869D0100869D01001100030082
:10A3100095980100120003009598010013000300B6
:0CA32000959801001400030095980100BE
:08A32C0094DDFF7F0100000039
:10A334000000000000000000000000000000000019
:10A344000000000000000000000000000000000009
:10A3540044A2010000000000000000000000000012
:10A3640000000000000000000000000000000000E9
:10A3740000000000000000000000000000000000D9
:10A3840000000000000000000000000000000000C9
:10A394006E726635315F69426561636F6E000000FD
:040000031000A095B4
:00000001FF
